{
  "_format": "hh-sol-artifact-1",
  "contractName": "WalletContract",
  "sourceName": "contracts/WalletContract.sol",
  "abi": [
    {
      "inputs": [
        {
          "internalType": "address",
          "name": "walletOwner",
          "type": "address"
        }
      ],
      "stateMutability": "nonpayable",
      "type": "constructor"
    },
    {
      "anonymous": false,
      "inputs": [
        {
          "indexed": true,
          "internalType": "address",
          "name": "owner",
          "type": "address"
        },
        {
          "indexed": false,
          "internalType": "uint256",
          "name": "amount",
          "type": "uint256"
        }
      ],
      "name": "FundsReceived",
      "type": "event"
    },
    {
      "inputs": [
        {
          "internalType": "address",
          "name": "",
          "type": "address"
        }
      ],
      "name": "balances",
      "outputs": [
        {
          "internalType": "uint256",
          "name": "",
          "type": "uint256"
        }
      ],
      "stateMutability": "view",
      "type": "function"
    },
    {
      "inputs": [],
      "name": "getBalance",
      "outputs": [
        {
          "internalType": "uint256",
          "name": "",
          "type": "uint256"
        }
      ],
      "stateMutability": "view",
      "type": "function"
    },
    {
      "inputs": [
        {
          "internalType": "address",
          "name": "tokenAddress",
          "type": "address"
        }
      ],
      "name": "getTokenBalance",
      "outputs": [
        {
          "internalType": "uint256",
          "name": "",
          "type": "uint256"
        }
      ],
      "stateMutability": "view",
      "type": "function"
    },
    {
      "inputs": [
        {
          "internalType": "address",
          "name": "",
          "type": "address"
        },
        {
          "internalType": "address",
          "name": "",
          "type": "address"
        }
      ],
      "name": "tokenBalances",
      "outputs": [
        {
          "internalType": "address",
          "name": "tokenAddress",
          "type": "address"
        }
      ],
      "stateMutability": "view",
      "type": "function"
    },
    {
      "inputs": [
        {
          "internalType": "address",
          "name": "to",
          "type": "address"
        },
        {
          "internalType": "address",
          "name": "token",
          "type": "address"
        },
        {
          "internalType": "uint256",
          "name": "amount",
          "type": "uint256"
        }
      ],
      "name": "transfer",
      "outputs": [],
      "stateMutability": "nonpayable",
      "type": "function"
    },
    {
      "stateMutability": "payable",
      "type": "receive"
    }
  ],
  "bytecode": "0x60a06040523480156200001157600080fd5b506040516200109a3803806200109a83398181016040528101906200003791906200014e565b600073ffffffffffffffffffffffffffffffffffffffff168173ffffffffffffffffffffffffffffffffffffffff1603620000a9576040517f08c379a0000000000000000000000000000000000000000000000000000000008152600401620000a090620001e1565b60405180910390fd5b8073ffffffffffffffffffffffffffffffffffffffff1660808173ffffffffffffffffffffffffffffffffffffffff16815250505062000203565b600080fd5b600073ffffffffffffffffffffffffffffffffffffffff82169050919050565b60006200011682620000e9565b9050919050565b620001288162000109565b81146200013457600080fd5b50565b60008151905062000148816200011d565b92915050565b600060208284031215620001675762000166620000e4565b5b6000620001778482850162000137565b91505092915050565b600082825260208201905092915050565b7f496e76616c69642077616c6c6574206f776e6572206164647265737300000000600082015250565b6000620001c9601c8362000180565b9150620001d68262000191565b602082019050919050565b60006020820190508181036000830152620001fc81620001ba565b9050919050565b608051610e7662000224600039600081816059015260ca0152610e766000f3fe60806040526004361061004e5760003560e01c806312065fe01461013d57806327e235e3146101685780633aecd0e3146101a55780634dbf6c5a146101e2578063beabacc81461021f57610138565b3661013857346000807f000000000000000000000000000000000000000000000000000000000000000073ffffffffffffffffffffffffffffffffffffffff1673ffffffffffffffffffffffffffffffffffffffff16815260200190815260200160002060008282546100c19190610991565b925050819055507f000000000000000000000000000000000000000000000000000000000000000073ffffffffffffffffffffffffffffffffffffffff167f8e47b87b0ef542cdfa1659c551d88bad38aa7f452d2bbb349ab7530dfec8be8f3460405161012e91906109d4565b60405180910390a2005b600080fd5b34801561014957600080fd5b50610152610248565b60405161015f91906109d4565b60405180910390f35b34801561017457600080fd5b5061018f600480360381019061018a9190610a52565b610250565b60405161019c91906109d4565b60405180910390f35b3480156101b157600080fd5b506101cc60048036038101906101c79190610a52565b610268565b6040516101d991906109d4565b60405180910390f35b3480156101ee57600080fd5b5061020960048036038101906102049190610a7f565b61035d565b6040516102169190610ace565b60405180910390f35b34801561022b57600080fd5b5061024660048036038101906102419190610b15565b6103a8565b005b600047905090565b60006020528060005260406000206000915090505481565b600080600160003373ffffffffffffffffffffffffffffffffffffffff1673ffffffffffffffffffffffffffffffffffffffff16815260200190815260200160002060008473ffffffffffffffffffffffffffffffffffffffff1673ffffffffffffffffffffffffffffffffffffffff1681526020019081526020016000209050600073ffffffffffffffffffffffffffffffffffffffff168160000160009054906101000a900473ffffffffffffffffffffffffffffffffffffffff1673ffffffffffffffffffffffffffffffffffffffff160361034b576000915050610358565b610354836107f5565b9150505b919050565b6001602052816000526040600020602052806000526040600020600091509150508060000160009054906101000a900473ffffffffffffffffffffffffffffffffffffffff16905081565b600073ffffffffffffffffffffffffffffffffffffffff168273ffffffffffffffffffffffffffffffffffffffff160361055357806000803373ffffffffffffffffffffffffffffffffffffffff1673ffffffffffffffffffffffffffffffffffffffff16815260200190815260200160002054101561045d576040517f08c379a000000000000000000000000000000000000000000000000000000000815260040161045490610bc5565b60405180910390fd5b806000803373ffffffffffffffffffffffffffffffffffffffff1673ffffffffffffffffffffffffffffffffffffffff16815260200190815260200160002060008282546104ab9190610be5565b92505081905550806000808573ffffffffffffffffffffffffffffffffffffffff1673ffffffffffffffffffffffffffffffffffffffff16815260200190815260200160002060008282546105009190610991565b925050819055508273ffffffffffffffffffffffffffffffffffffffff166108fc829081150290604051600060405180830381858888f1935050505015801561054d573d6000803e3d6000fd5b506107f0565b6000829050818173ffffffffffffffffffffffffffffffffffffffff166370a08231306040518263ffffffff1660e01b81526004016105929190610ace565b602060405180830381865afa1580156105af573d6000803e3d6000fd5b505050506040513d601f19601f820116820180604052508101906105d39190610c2e565b1015610614576040517f08c379a000000000000000000000000000000000000000000000000000000000815260040161060b90610bc5565b60405180910390fd5b6000600160003373ffffffffffffffffffffffffffffffffffffffff1673ffffffffffffffffffffffffffffffffffffffff16815260200190815260200160002060008573ffffffffffffffffffffffffffffffffffffffff1673ffffffffffffffffffffffffffffffffffffffff1681526020019081526020016000209050600073ffffffffffffffffffffffffffffffffffffffff168160000160009054906101000a900473ffffffffffffffffffffffffffffffffffffffff1673ffffffffffffffffffffffffffffffffffffffff160361073057838160000160006101000a81548173ffffffffffffffffffffffffffffffffffffffff021916908373ffffffffffffffffffffffffffffffffffffffff1602179055505b8173ffffffffffffffffffffffffffffffffffffffff1663a9059cbb86856040518363ffffffff1660e01b815260040161076b929190610c5b565b6020604051808303816000875af115801561078a573d6000803e3d6000fd5b505050506040513d601f19601f820116820180604052508101906107ae9190610cbc565b6107ed576040517f08c379a00000000000000000000000000000000000000000000000000000000081526004016107e490610d35565b60405180910390fd5b50505b505050565b6000808290508073ffffffffffffffffffffffffffffffffffffffff166301ffc9a77ff677434b000000000000000000000000000000000000000000000000000000006040518263ffffffff1660e01b81526004016108549190610d90565b602060405180830381865afa158015610871573d6000803e3d6000fd5b505050506040513d601f19601f820116820180604052508101906108959190610cbc565b6108d4576040517f08c379a00000000000000000000000000000000000000000000000000000000081526004016108cb90610df7565b60405180910390fd5b8073ffffffffffffffffffffffffffffffffffffffff1663f7888aec33856040518363ffffffff1660e01b815260040161090f929190610e17565b602060405180830381865afa15801561092c573d6000803e3d6000fd5b505050506040513d601f19601f820116820180604052508101906109509190610c2e565b915050919050565b6000819050919050565b7f4e487b7100000000000000000000000000000000000000000000000000000000600052601160045260246000fd5b600061099c82610958565b91506109a783610958565b92508282019050808211156109bf576109be610962565b5b92915050565b6109ce81610958565b82525050565b60006020820190506109e960008301846109c5565b92915050565b600080fd5b600073ffffffffffffffffffffffffffffffffffffffff82169050919050565b6000610a1f826109f4565b9050919050565b610a2f81610a14565b8114610a3a57600080fd5b50565b600081359050610a4c81610a26565b92915050565b600060208284031215610a6857610a676109ef565b5b6000610a7684828501610a3d565b91505092915050565b60008060408385031215610a9657610a956109ef565b5b6000610aa485828601610a3d565b9250506020610ab585828601610a3d565b9150509250929050565b610ac881610a14565b82525050565b6000602082019050610ae36000830184610abf565b92915050565b610af281610958565b8114610afd57600080fd5b50565b600081359050610b0f81610ae9565b92915050565b600080600060608486031215610b2e57610b2d6109ef565b5b6000610b3c86828701610a3d565b9350506020610b4d86828701610a3d565b9250506040610b5e86828701610b00565b9150509250925092565b600082825260208201905092915050565b7f496e73756666696369656e742062616c616e6365000000000000000000000000600082015250565b6000610baf601483610b68565b9150610bba82610b79565b602082019050919050565b60006020820190508181036000830152610bde81610ba2565b9050919050565b6000610bf082610958565b9150610bfb83610958565b9250828203905081811115610c1357610c12610962565b5b92915050565b600081519050610c2881610ae9565b92915050565b600060208284031215610c4457610c436109ef565b5b6000610c5284828501610c19565b91505092915050565b6000604082019050610c706000830185610abf565b610c7d60208301846109c5565b9392505050565b60008115159050919050565b610c9981610c84565b8114610ca457600080fd5b50565b600081519050610cb681610c90565b92915050565b600060208284031215610cd257610cd16109ef565b5b6000610ce084828501610ca7565b91505092915050565b7f546f6b656e207472616e73666572206661696c65640000000000000000000000600082015250565b6000610d1f601583610b68565b9150610d2a82610ce9565b602082019050919050565b60006020820190508181036000830152610d4e81610d12565b9050919050565b60007fffffffff0000000000000000000000000000000000000000000000000000000082169050919050565b610d8a81610d55565b82525050565b6000602082019050610da56000830184610d81565b92915050565b7f546f6b656e20646f6573206e6f7420737570706f7274204549502d3433333700600082015250565b6000610de1601f83610b68565b9150610dec82610dab565b602082019050919050565b60006020820190508181036000830152610e1081610dd4565b9050919050565b6000604082019050610e2c6000830185610abf565b610e396020830184610abf565b939250505056fea26469706673582212208d81cfa09fea2edb25c4d98c287ef4a34bf33b26e98987ecc58f10a065b136ff64736f6c63430008130033",
  "linkReferences": {},
  "deployedLinkReferences": {}
}