{
  "_format": "hh-sol-artifact-1",
  "contractName": "WalletContractDeployer",
  "sourceName": "contracts/WalletContractDeployer.sol",
  "abi": [
    {
      "anonymous": false,
      "inputs": [
        {
          "indexed": true,
          "internalType": "address",
          "name": "from",
          "type": "address"
        },
        {
          "indexed": true,
          "internalType": "address",
          "name": "to",
          "type": "address"
        },
        {
          "indexed": false,
          "internalType": "uint256",
          "name": "amount",
          "type": "uint256"
        }
      ],
      "name": "Transfer",
      "type": "event"
    },
    {
      "anonymous": false,
      "inputs": [
        {
          "indexed": true,
          "internalType": "address",
          "name": "owner",
          "type": "address"
        },
        {
          "indexed": true,
          "internalType": "address",
          "name": "walletAddress",
          "type": "address"
        }
      ],
      "name": "WalletCreated",
      "type": "event"
    },
    {
      "inputs": [],
      "name": "createWallet",
      "outputs": [],
      "stateMutability": "nonpayable",
      "type": "function"
    },
    {
      "inputs": [
        {
          "internalType": "address",
          "name": "walletOwner",
          "type": "address"
        }
      ],
      "name": "getBalance",
      "outputs": [
        {
          "internalType": "uint256",
          "name": "",
          "type": "uint256"
        }
      ],
      "stateMutability": "view",
      "type": "function"
    },
    {
      "inputs": [
        {
          "internalType": "address",
          "name": "walletOwner",
          "type": "address"
        },
        {
          "internalType": "address",
          "name": "tokenAddress",
          "type": "address"
        }
      ],
      "name": "getTokenBalance",
      "outputs": [
        {
          "internalType": "uint256",
          "name": "",
          "type": "uint256"
        }
      ],
      "stateMutability": "view",
      "type": "function"
    },
    {
      "inputs": [
        {
          "internalType": "address",
          "name": "walletOwner",
          "type": "address"
        }
      ],
      "name": "getWalletAddress",
      "outputs": [
        {
          "internalType": "address",
          "name": "",
          "type": "address"
        }
      ],
      "stateMutability": "view",
      "type": "function"
    },
    {
      "inputs": [
        {
          "internalType": "address",
          "name": "walletAddress",
          "type": "address"
        }
      ],
      "name": "getWalletOwner",
      "outputs": [
        {
          "internalType": "address",
          "name": "",
          "type": "address"
        }
      ],
      "stateMutability": "view",
      "type": "function"
    },
    {
      "inputs": [
        {
          "internalType": "address",
          "name": "fromWalletAddress",
          "type": "address"
        },
        {
          "internalType": "address",
          "name": "toWalletAddress",
          "type": "address"
        },
        {
          "internalType": "address",
          "name": "token",
          "type": "address"
        },
        {
          "internalType": "uint256",
          "name": "amount",
          "type": "uint256"
        }
      ],
      "name": "transfer",
      "outputs": [],
      "stateMutability": "nonpayable",
      "type": "function"
    }
  ],
  "bytecode": "0x608060405234801561001057600080fd5b50611f7a806100206000396000f3fe60806040523480156200001157600080fd5b50600436106200006a5760003560e01c806311ebbf24146200006f5780631fd9afa5146200007b578063966708a514620000b1578063c489744b14620000e7578063f18d03cc146200011d578063f8b2cb4f146200013d575b600080fd5b6200007962000173565b005b62000099600480360381019062000093919062000ac9565b6200046e565b604051620000a8919062000b0c565b60405180910390f35b620000cf6004803603810190620000c9919062000ac9565b620004d7565b604051620000de919062000b0c565b60405180910390f35b620001056004803603810190620000ff919062000b29565b62000542565b60405162000114919062000b8b565b60405180910390f35b6200013b600480360381019062000135919062000bd9565b6200062f565b005b6200015b600480360381019062000155919062000ac9565b62000972565b6040516200016a919062000b8b565b60405180910390f35b600073ffffffffffffffffffffffffffffffffffffffff166000803373ffffffffffffffffffffffffffffffffffffffff1673ffffffffffffffffffffffffffffffffffffffff16815260200190815260200160002060000160009054906101000a900473ffffffffffffffffffffffffffffffffffffffff1673ffffffffffffffffffffffffffffffffffffffff161462000246576040517f08c379a00000000000000000000000000000000000000000000000000000000081526004016200023d9062000cac565b60405180910390fd5b600033604051620002579062000a51565b62000263919062000b0c565b604051809103906000f08015801562000280573d6000803e3d6000fd5b50905060405180604001604052803373ffffffffffffffffffffffffffffffffffffffff1681526020018273ffffffffffffffffffffffffffffffffffffffff168152506000803373ffffffffffffffffffffffffffffffffffffffff1673ffffffffffffffffffffffffffffffffffffffff16815260200190815260200160002060008201518160000160006101000a81548173ffffffffffffffffffffffffffffffffffffffff021916908373ffffffffffffffffffffffffffffffffffffffff16021790555060208201518160010160006101000a81548173ffffffffffffffffffffffffffffffffffffffff021916908373ffffffffffffffffffffffffffffffffffffffff16021790555090505080600160003373ffffffffffffffffffffffffffffffffffffffff1673ffffffffffffffffffffffffffffffffffffffff16815260200190815260200160002060006101000a81548173ffffffffffffffffffffffffffffffffffffffff021916908373ffffffffffffffffffffffffffffffffffffffff1602179055508073ffffffffffffffffffffffffffffffffffffffff163373ffffffffffffffffffffffffffffffffffffffff167f5b03bfed1c14a02bdeceb5fa582eb1a5765fc0bc64ca0e6af4c20afc9487f08160405160405180910390a350565b6000600160008373ffffffffffffffffffffffffffffffffffffffff1673ffffffffffffffffffffffffffffffffffffffff16815260200190815260200160002060009054906101000a900473ffffffffffffffffffffffffffffffffffffffff169050919050565b60008060008373ffffffffffffffffffffffffffffffffffffffff1673ffffffffffffffffffffffffffffffffffffffff16815260200190815260200160002060000160009054906101000a900473ffffffffffffffffffffffffffffffffffffffff169050919050565b600080600160008573ffffffffffffffffffffffffffffffffffffffff1673ffffffffffffffffffffffffffffffffffffffff16815260200190815260200160002060009054906101000a900473ffffffffffffffffffffffffffffffffffffffff1690508073ffffffffffffffffffffffffffffffffffffffff16633aecd0e3846040518263ffffffff1660e01b8152600401620005e2919062000b0c565b602060405180830381865afa15801562000600573d6000803e3d6000fd5b505050506040513d601f19601f8201168201806040525081019062000626919062000ce5565b91505092915050565b600073ffffffffffffffffffffffffffffffffffffffff166000808673ffffffffffffffffffffffffffffffffffffffff1673ffffffffffffffffffffffffffffffffffffffff16815260200190815260200160002060000160009054906101000a900473ffffffffffffffffffffffffffffffffffffffff1673ffffffffffffffffffffffffffffffffffffffff160362000702576040517f08c379a0000000000000000000000000000000000000000000000000000000008152600401620006f99062000d67565b60405180910390fd5b600073ffffffffffffffffffffffffffffffffffffffff166000808573ffffffffffffffffffffffffffffffffffffffff1673ffffffffffffffffffffffffffffffffffffffff16815260200190815260200160002060000160009054906101000a900473ffffffffffffffffffffffffffffffffffffffff1673ffffffffffffffffffffffffffffffffffffffff1603620007d5576040517f08c379a0000000000000000000000000000000000000000000000000000000008152600401620007cc9062000dd9565b60405180910390fd5b6000849050818173ffffffffffffffffffffffffffffffffffffffff166312065fe06040518163ffffffff1660e01b8152600401602060405180830381865afa15801562000827573d6000803e3d6000fd5b505050506040513d601f19601f820116820180604052508101906200084d919062000ce5565b101562000891576040517f08c379a0000000000000000000000000000000000000000000000000000000008152600401620008889062000e4b565b60405180910390fd5b8073ffffffffffffffffffffffffffffffffffffffff1663beabacc88585856040518463ffffffff1660e01b8152600401620008d09392919062000e6d565b600060405180830381600087803b158015620008eb57600080fd5b505af115801562000900573d6000803e3d6000fd5b505050508373ffffffffffffffffffffffffffffffffffffffff168573ffffffffffffffffffffffffffffffffffffffff167fddf252ad1be2c89b69c2b068fc378daa952ba7f163c4a11628f55a4df523b3ef8460405162000963919062000b8b565b60405180910390a35050505050565b600080600160008473ffffffffffffffffffffffffffffffffffffffff1673ffffffffffffffffffffffffffffffffffffffff16815260200190815260200160002060009054906101000a900473ffffffffffffffffffffffffffffffffffffffff1690508073ffffffffffffffffffffffffffffffffffffffff166312065fe06040518163ffffffff1660e01b8152600401602060405180830381865afa15801562000a23573d6000803e3d6000fd5b505050506040513d601f19601f8201168201806040525081019062000a49919062000ce5565b915050919050565b61109a8062000eab83390190565b600080fd5b600073ffffffffffffffffffffffffffffffffffffffff82169050919050565b600062000a918262000a64565b9050919050565b62000aa38162000a84565b811462000aaf57600080fd5b50565b60008135905062000ac38162000a98565b92915050565b60006020828403121562000ae25762000ae162000a5f565b5b600062000af28482850162000ab2565b91505092915050565b62000b068162000a84565b82525050565b600060208201905062000b23600083018462000afb565b92915050565b6000806040838503121562000b435762000b4262000a5f565b5b600062000b538582860162000ab2565b925050602062000b668582860162000ab2565b9150509250929050565b6000819050919050565b62000b858162000b70565b82525050565b600060208201905062000ba2600083018462000b7a565b92915050565b62000bb38162000b70565b811462000bbf57600080fd5b50565b60008135905062000bd38162000ba8565b92915050565b6000806000806080858703121562000bf65762000bf562000a5f565b5b600062000c068782880162000ab2565b945050602062000c198782880162000ab2565b935050604062000c2c8782880162000ab2565b925050606062000c3f8782880162000bc2565b91505092959194509250565b600082825260208201905092915050565b7f57616c6c657420616c7265616479206578697374730000000000000000000000600082015250565b600062000c9460158362000c4b565b915062000ca18262000c5c565b602082019050919050565b6000602082019050818103600083015262000cc78162000c85565b9050919050565b60008151905062000cdf8162000ba8565b92915050565b60006020828403121562000cfe5762000cfd62000a5f565b5b600062000d0e8482850162000cce565b91505092915050565b7f53656e6465722077616c6c657420646f6573206e6f7420657869737400000000600082015250565b600062000d4f601c8362000c4b565b915062000d5c8262000d17565b602082019050919050565b6000602082019050818103600083015262000d828162000d40565b9050919050565b7f52656365697665722077616c6c657420646f6573206e6f742065786973740000600082015250565b600062000dc1601e8362000c4b565b915062000dce8262000d89565b602082019050919050565b6000602082019050818103600083015262000df48162000db2565b9050919050565b7f496e73756666696369656e742062616c616e6365000000000000000000000000600082015250565b600062000e3360148362000c4b565b915062000e408262000dfb565b602082019050919050565b6000602082019050818103600083015262000e668162000e24565b9050919050565b600060608201905062000e84600083018662000afb565b62000e93602083018562000afb565b62000ea2604083018462000b7a565b94935050505056fe60a06040523480156200001157600080fd5b506040516200109a3803806200109a83398181016040528101906200003791906200014e565b600073ffffffffffffffffffffffffffffffffffffffff168173ffffffffffffffffffffffffffffffffffffffff1603620000a9576040517f08c379a0000000000000000000000000000000000000000000000000000000008152600401620000a090620001e1565b60405180910390fd5b8073ffffffffffffffffffffffffffffffffffffffff1660808173ffffffffffffffffffffffffffffffffffffffff16815250505062000203565b600080fd5b600073ffffffffffffffffffffffffffffffffffffffff82169050919050565b60006200011682620000e9565b9050919050565b620001288162000109565b81146200013457600080fd5b50565b60008151905062000148816200011d565b92915050565b600060208284031215620001675762000166620000e4565b5b6000620001778482850162000137565b91505092915050565b600082825260208201905092915050565b7f496e76616c69642077616c6c6574206f776e6572206164647265737300000000600082015250565b6000620001c9601c8362000180565b9150620001d68262000191565b602082019050919050565b60006020820190508181036000830152620001fc81620001ba565b9050919050565b608051610e7662000224600039600081816059015260ca0152610e766000f3fe60806040526004361061004e5760003560e01c806312065fe01461013d57806327e235e3146101685780633aecd0e3146101a55780634dbf6c5a146101e2578063beabacc81461021f57610138565b3661013857346000807f000000000000000000000000000000000000000000000000000000000000000073ffffffffffffffffffffffffffffffffffffffff1673ffffffffffffffffffffffffffffffffffffffff16815260200190815260200160002060008282546100c19190610991565b925050819055507f000000000000000000000000000000000000000000000000000000000000000073ffffffffffffffffffffffffffffffffffffffff167f8e47b87b0ef542cdfa1659c551d88bad38aa7f452d2bbb349ab7530dfec8be8f3460405161012e91906109d4565b60405180910390a2005b600080fd5b34801561014957600080fd5b50610152610248565b60405161015f91906109d4565b60405180910390f35b34801561017457600080fd5b5061018f600480360381019061018a9190610a52565b610250565b60405161019c91906109d4565b60405180910390f35b3480156101b157600080fd5b506101cc60048036038101906101c79190610a52565b610268565b6040516101d991906109d4565b60405180910390f35b3480156101ee57600080fd5b5061020960048036038101906102049190610a7f565b61035d565b6040516102169190610ace565b60405180910390f35b34801561022b57600080fd5b5061024660048036038101906102419190610b15565b6103a8565b005b600047905090565b60006020528060005260406000206000915090505481565b600080600160003373ffffffffffffffffffffffffffffffffffffffff1673ffffffffffffffffffffffffffffffffffffffff16815260200190815260200160002060008473ffffffffffffffffffffffffffffffffffffffff1673ffffffffffffffffffffffffffffffffffffffff1681526020019081526020016000209050600073ffffffffffffffffffffffffffffffffffffffff168160000160009054906101000a900473ffffffffffffffffffffffffffffffffffffffff1673ffffffffffffffffffffffffffffffffffffffff160361034b576000915050610358565b610354836107f5565b9150505b919050565b6001602052816000526040600020602052806000526040600020600091509150508060000160009054906101000a900473ffffffffffffffffffffffffffffffffffffffff16905081565b600073ffffffffffffffffffffffffffffffffffffffff168273ffffffffffffffffffffffffffffffffffffffff160361055357806000803373ffffffffffffffffffffffffffffffffffffffff1673ffffffffffffffffffffffffffffffffffffffff16815260200190815260200160002054101561045d576040517f08c379a000000000000000000000000000000000000000000000000000000000815260040161045490610bc5565b60405180910390fd5b806000803373ffffffffffffffffffffffffffffffffffffffff1673ffffffffffffffffffffffffffffffffffffffff16815260200190815260200160002060008282546104ab9190610be5565b92505081905550806000808573ffffffffffffffffffffffffffffffffffffffff1673ffffffffffffffffffffffffffffffffffffffff16815260200190815260200160002060008282546105009190610991565b925050819055508273ffffffffffffffffffffffffffffffffffffffff166108fc829081150290604051600060405180830381858888f1935050505015801561054d573d6000803e3d6000fd5b506107f0565b6000829050818173ffffffffffffffffffffffffffffffffffffffff166370a08231306040518263ffffffff1660e01b81526004016105929190610ace565b602060405180830381865afa1580156105af573d6000803e3d6000fd5b505050506040513d601f19601f820116820180604052508101906105d39190610c2e565b1015610614576040517f08c379a000000000000000000000000000000000000000000000000000000000815260040161060b90610bc5565b60405180910390fd5b6000600160003373ffffffffffffffffffffffffffffffffffffffff1673ffffffffffffffffffffffffffffffffffffffff16815260200190815260200160002060008573ffffffffffffffffffffffffffffffffffffffff1673ffffffffffffffffffffffffffffffffffffffff1681526020019081526020016000209050600073ffffffffffffffffffffffffffffffffffffffff168160000160009054906101000a900473ffffffffffffffffffffffffffffffffffffffff1673ffffffffffffffffffffffffffffffffffffffff160361073057838160000160006101000a81548173ffffffffffffffffffffffffffffffffffffffff021916908373ffffffffffffffffffffffffffffffffffffffff1602179055505b8173ffffffffffffffffffffffffffffffffffffffff1663a9059cbb86856040518363ffffffff1660e01b815260040161076b929190610c5b565b6020604051808303816000875af115801561078a573d6000803e3d6000fd5b505050506040513d601f19601f820116820180604052508101906107ae9190610cbc565b6107ed576040517f08c379a00000000000000000000000000000000000000000000000000000000081526004016107e490610d35565b60405180910390fd5b50505b505050565b6000808290508073ffffffffffffffffffffffffffffffffffffffff166301ffc9a77ff677434b000000000000000000000000000000000000000000000000000000006040518263ffffffff1660e01b81526004016108549190610d90565b602060405180830381865afa158015610871573d6000803e3d6000fd5b505050506040513d601f19601f820116820180604052508101906108959190610cbc565b6108d4576040517f08c379a00000000000000000000000000000000000000000000000000000000081526004016108cb90610df7565b60405180910390fd5b8073ffffffffffffffffffffffffffffffffffffffff1663f7888aec33856040518363ffffffff1660e01b815260040161090f929190610e17565b602060405180830381865afa15801561092c573d6000803e3d6000fd5b505050506040513d601f19601f820116820180604052508101906109509190610c2e565b915050919050565b6000819050919050565b7f4e487b7100000000000000000000000000000000000000000000000000000000600052601160045260246000fd5b600061099c82610958565b91506109a783610958565b92508282019050808211156109bf576109be610962565b5b92915050565b6109ce81610958565b82525050565b60006020820190506109e960008301846109c5565b92915050565b600080fd5b600073ffffffffffffffffffffffffffffffffffffffff82169050919050565b6000610a1f826109f4565b9050919050565b610a2f81610a14565b8114610a3a57600080fd5b50565b600081359050610a4c81610a26565b92915050565b600060208284031215610a6857610a676109ef565b5b6000610a7684828501610a3d565b91505092915050565b60008060408385031215610a9657610a956109ef565b5b6000610aa485828601610a3d565b9250506020610ab585828601610a3d565b9150509250929050565b610ac881610a14565b82525050565b6000602082019050610ae36000830184610abf565b92915050565b610af281610958565b8114610afd57600080fd5b50565b600081359050610b0f81610ae9565b92915050565b600080600060608486031215610b2e57610b2d6109ef565b5b6000610b3c86828701610a3d565b9350506020610b4d86828701610a3d565b9250506040610b5e86828701610b00565b9150509250925092565b600082825260208201905092915050565b7f496e73756666696369656e742062616c616e6365000000000000000000000000600082015250565b6000610baf601483610b68565b9150610bba82610b79565b602082019050919050565b60006020820190508181036000830152610bde81610ba2565b9050919050565b6000610bf082610958565b9150610bfb83610958565b9250828203905081811115610c1357610c12610962565b5b92915050565b600081519050610c2881610ae9565b92915050565b600060208284031215610c4457610c436109ef565b5b6000610c5284828501610c19565b91505092915050565b6000604082019050610c706000830185610abf565b610c7d60208301846109c5565b9392505050565b60008115159050919050565b610c9981610c84565b8114610ca457600080fd5b50565b600081519050610cb681610c90565b92915050565b600060208284031215610cd257610cd16109ef565b5b6000610ce084828501610ca7565b91505092915050565b7f546f6b656e207472616e73666572206661696c65640000000000000000000000600082015250565b6000610d1f601583610b68565b9150610d2a82610ce9565b602082019050919050565b60006020820190508181036000830152610d4e81610d12565b9050919050565b60007fffffffff0000000000000000000000000000000000000000000000000000000082169050919050565b610d8a81610d55565b82525050565b6000602082019050610da56000830184610d81565b92915050565b7f546f6b656e20646f6573206e6f7420737570706f7274204549502d3433333700600082015250565b6000610de1601f83610b68565b9150610dec82610dab565b602082019050919050565b60006020820190508181036000830152610e1081610dd4565b9050919050565b6000604082019050610e2c6000830185610abf565b610e396020830184610abf565b939250505056fea26469706673582212208d81cfa09fea2edb25c4d98c287ef4a34bf33b26e98987ecc58f10a065b136ff64736f6c63430008130033a2646970667358221220a0b50bfff4134ed94094521edc19ea8bdcf37f83c97a721ce197445e0a2a212f64736f6c63430008130033",
  "linkReferences": {},
  "deployedLinkReferences": {}
}